:020000040800F2
:1000000000400020994A0008B32D0008B52D0008D3
:1000100000000000000000000000000000000000E0
:10002000000000000000000000000000B72D0008E4
:100030000000000000000000B92D0008BB2D0008E2
:10004000E94A0008E94A0008E94A0008E94A0008C4
:10005000E94A0008E94A0008E94A0008E94A0008B4
:10006000E94A0008E94A0008C52D0008E94A0008E5
:10007000E94A0008D52D0008E94A0008E94A0008C5
:10008000E94A0008E94A0008E94A0008E94A000884
:10009000E94A0008E94A0008E94A0008E94A000874
:1000A000E94A0008E94A0008E94A0008E94A000864
:1000B000E94A0008E94A0008E94A0008E94A000854
:1000C00010B5064C2378002B07D1054B002B02D02E
:1000D000044800E000BF0123237010BDE8070020A2
:1000E00000000000F85E0008044B10B5002B03D0A0
:1000F0000349044800E000BF10BDC04600000000F6
:10010000EC070020F85E0008002243088B4274D3FD
:1001100003098B425FD3030A8B4244D3030B8B4208
:1001200028D3030C8B420DD3FF22090212BA030C11
:100130008B4202D31212090265D0030B8B4219D3F2
:1001400000E0090AC30B8B4201D3CB03C01A524112
:10015000830B8B4201D38B03C01A5241430B8B425A
:1001600001D34B03C01A5241030B8B4201D30B0343
:10017000C01A5241C30A8B4201D3CB02C01A52416A
:10018000830A8B4201D38B02C01A5241430A8B422D
:1001900001D34B02C01A5241030A8B4201D30B0216
:1001A000C01A5241CDD2C3098B4201D3CB01C01A30
:1001B000524183098B4201D38B01C01A524143093A
:1001C0008B4201D34B01C01A524103098B4201D328
:1001D0000B01C01A5241C3088B4201D3CB00C01A95
:1001E000524183088B4201D38B00C01A524143080D
:1001F0008B4201D34B00C01A5241411A00D2014632
:10020000524110467047FFE701B5002000F0F0F8BA
:1002100002BDC0460029F7D076E7704703460B437E
:100220007FD4002243088B4274D303098B425FD3EF
:10023000030A8B4244D3030B8B4228D3030C8B421B
:100240000DD3FF22090212BA030C8B4202D3121201
:10025000090265D0030B8B4219D300E0090AC30BD6
:100260008B4201D3CB03C01A5241830B8B4201D383
:100270008B03C01A5241430B8B4201D34B03C01A6C
:100280005241030B8B4201D30B03C01A5241C30AE4
:100290008B4201D3CB02C01A5241830A8B4201D355
:1002A0008B02C01A5241430A8B4201D34B02C01A3F
:1002B0005241030A8B4201D30B02C01A5241CDD2E4
:1002C000C3098B4201D3CB01C01A524183098B422F
:1002D00001D38B01C01A524143098B4201D34B0118
:1002E000C01A524103098B4201D30B01C01A52417B
:1002F000C3088B4201D3CB00C01A524183088B4202
:1003000001D38B00C01A524143088B4201D34B00EA
:10031000C01A5241411A00D201465241104670475C
:100320005DE0CA0F00D04942031000D34042534061
:1003300000229C4603098B422DD3030A8B4212D321
:10034000FC22890112BA030A8B420CD38901921153
:100350008B4208D3890192118B4204D389013AD090
:10036000921100E08909C3098B4201D3CB01C01A65
:10037000524183098B4201D38B01C01A5241430978
:100380008B4201D34B01C01A524103098B4201D366
:100390000B01C01A5241C3088B4201D3CB00C01AD3
:1003A000524183088B4201D38B00C01A5241D9D2EB
:1003B00043088B4201D34B00C01A5241411A00D26C
:1003C0000146634652415B10104601D34042002B68
:1003D00000D54942704763465B1000D3404201B5E7
:1003E000002000F005F802BD0029F8D016E770479C
:1003F0007047C0468446101C62468C46191C6346F2
:1004000000E0C0461FB501F0EBFB002801D400213D
:10041000C8421FBD10B501F043FB4042013010BD82
:1004200010B501F0DDFB002801DB002010BD01202C
:1004300010BDC04610B501F0D3FB002801DD00203F
:1004400010BD012010BDC04610B501F065FB0028AD
:1004500001DC002010BD012010BDC04610B501F028
:100460005BFB002801DA002010BD012010BDC04652
:10047000F8B54746CE4643025B0A4400C20F9C468D
:100480004800DD004B02240E5B0A000E80B5984642
:1004900026009146C90FDB00271A8A4229D0002F77
:1004A00015DD00284AD1002B00D095E0ED08FF2C87
:1004B00000D188E06B025B0AE6B25B02F605580ADF
:1004C0003043D20710430CBC90469946F8BD002F2C
:1004D00000D087E0601CC0B2012800DCB6E0EE1A54
:1004E000720100D5C5E0002E3DD100220026002378
:1004F000E3E7002F00DC96E000285DD0FF2C60D001
:100500008022D20413431B2F00DDECE02022D21BFB
:1005100018009340F8405A1E93410343ED186B01B5
:100520007BD50134FF2C00D1B7E0012207262A40F9
:100530006B089A4D1D4015432E4029E0FF2CB5D085
:100540008022D20413431B2F00DDB2E02022D21BF5
:1005500019009340F9405A1E93410B43ED1A6B0169
:100560005BD5AD01AE09300002F0FEF905388640DA
:10057000844265DC041B330020200134E340041B6B
:10058000A640751EAE41334307261D0000241E40C1
:1005900001224B461A40002E04D00F232B40042B7F
:1005A00000D004356B0100D480E70134E6B2FF2CA3
:1005B0002FD1FF26002380E7002B52D1FF2C00D043
:1005C00074E70A00ED08002DF3D08023DB032B43F2
:1005D0005B025B0AFF2670E7013F002FBED0FF2CB5
:1005E000B1D163E7002C47D0FF2869D08024E40410
:1005F0007A4225431B2A00DDC5E02C002026D4408A
:10060000B21A95406A1E954125435D1B0400894638
:10061000A5E7AB015B0A50E7002401224B461A40D4
:100620006B07BAD142E7002F3BD10134E0B2012879
:100630004ADDFF2CBDD00726ED186D082E40A7E738
:100640000723574D241A35401E40A1E7002C1BD12B
:10065000002D6ED1002B00D19AE00A001D003C0055
:1006600024E7013F002F00D158E7FF2C00D04AE7D4
:10067000A7E75E1B894676E7002D1CD10A00FF28FC
:100680001FD004001D0011E7002D5DD1002B17D1F4
:1006900080230022DB03FF260FE70A00FF2600234A
:1006A0000BE7002C21D1002D66D1FF28E9D11D00D8
:1006B00087E7012352E77A1CA7D0FA43FF2899D194
:1006C0000A001D00FF24F1E6002E21D1002D4FD09D
:1006D000002B4CD0ED186B019ED5314B07362E40C8
:1006E00001241D4054E7012318E7FF28DFD08024B0
:1006F000E4047F4225431B2F4DDC2026F61B2C00F3
:10070000B540FC406A1E95412543ED18040006E7FC
:10071000002DCCD0002B00D153E780216046C903C7
:10072000084203D04046084200D11D00012111407B
:1007300047E7002B00D1B9E6EA1A500125D5072674
:100740005D1B2E40894623E7FF24002B00D1ADE638
:1007500080226046D203104204D04046104201D1AC
:100760001D00894601224B46FF241A409EE62B00BD
:10077000DD080A0000249DE67A1CC6D0FF43FF284E
:10078000B9D11D001DE701253FE7151E00D044E744
:100790000022002391E60125B7E7C046FFFFFF7D59
:1007A000FFFFFFFBF0B54E4657464546DE46E0B537
:1007B00043025B0A450083B00F1C99462D0EC60FFD
:1007C000002D57D0FF2D24D08020DB00C00418431B
:1007D000002381469A469B467F3D7C027A00FB0FB0
:1007E000640A120E984623D0FF2A4BD0E3008024DF
:1007F0000020E4047F3A1C43AD186B1C474601936C
:10080000534677403A000F2B48D87D499B00CB5880
:100810009F46002B00D085E008339A46063B9B4656
:100820007C027A00FB0FFF25640A120E9846DBD18A
:10083000002C00D090E0524601231A43924601203A
:10084000DBE74C4658461700022824D0032800D185
:10085000CFE00022002301284DD15802D205400AE2
:10086000FF071043384303B03CBC90469946A2466C
:10087000AB46F0BD002B5BD104239A46033B002519
:100880009B46AAE7FF35002C60D1524602231A434B
:1008900092460220B1E7FF220023DEE74B461B0C05
:1008A0009C464B462604360C180461463300220C45
:1008B0006446000C43434E435043544380191A0C82
:1008C0001218964203D9802149028C4664441B04C5
:1008D0001B0C1004C01883015E1EB341800E184328
:1008E000130C1B199B0103431C00230179D5012321
:1008F00062081C401443019A7F32002A4DDD6307D1
:1009000004D00F232340042B00D00434230103D54B
:100910003C4B019A1C408032FE2ABCDCA3015B0ADE
:10092000D2B29AE70C239A46093BFF259B4654E72F
:10093000180002F019F84A46431F76259A40002312
:100940006D4291462D1A9A469B4646E7524603232E
:100950001A439246032050E7200002F005F8431F97
:100960002D1A9C40763D002047E780230027DB03BB
:10097000FF2272E7424666E74C463200584662E77D
:1009800080234A46DB031A4222D01C4220D1234353
:100990005B025B0A4746FF225FE701239A1A1B2A84
:1009A00021DC23000199D3409E318C401A002300A2
:1009B0005C1EA34113435A0704D00F221A40042A95
:1009C00000D004335A0111D49B015B0A002244E792
:1009D00080234A46DB0313435B025B0A3700FF2296
:1009E0003BE7019587E70022002336E70122002339
:1009F00033E78023DB0323435B025B0AFF222CE700
:100A0000305F0008FFFFFFF7F8B54746CE464400C9
:100A1000C20F80B547024802400A84466646480035
:100A20007F0A240EF60025009046FB00000EC90F39
:100A3000B146FF2800D185E001267140261A914277
:100A400057D0002E43DD002800D07FE04946002922
:100A500000D1AAE0013E002E00D0F7E05B1A5A0157
:100A600000D48BE09B019C09200001F07DFF05383C
:100A70008440854200DDD3E0451B23002020013562
:100A8000EB40451BAC40621E9441234307240025E4
:100A90001C40012241460A40002C04D00F2119407D
:100AA000042900D00433590100D480E00135ECB2B0
:100AB000FF2D00D0A3E0FF2400235B02E405580AC9
:100AC000D207204310430CBC90469946F8BD002E37
:100AD00074D1601CC0B2012800DCA7E04A469C1A11
:100AE000620100D5B6E0002CBED100220024002314
:100AF000E3E7002E00DC85E0002846D0FF2C49D03B
:100B000080224846D2041043814601221B2E09DC74
:100B100020204C46801B84404A462000F240441E60
:100B2000A04102439B185A0128D50135FF2D00D161
:100B3000A8E00122072494491A405B080B401343A4
:100B40001C40A6E7002E00D078E775E7FF2C54D0B4
:100B500080224946D2041143894601221B2E09DC1A
:100B600020214846891B88404A460100F240481E21
:100B700081410A439B1A5A0100D573E7012241467D
:100B80000A40590700D089E711E04846002858D1AB
:100B9000FF2C0CD1DB08002B00D18CE78020C00398
:100BA00003435B025B0AFF2487E7FF2C25D0DB08A9
:100BB000FF2DF0D05B025B0AECB27EE7002C4DD03B
:100BC000FF2818D08024E404724223431B2A00DD4E
:100BD000C4E01C002025D440AA1A93405A1E934119
:100BE00023434A460500D31A884638E7721CF8D0DA
:100BF000F243FF28EAD10A004B46FF25D7E79B01C5
:100C00005B0A5AE7002E41D1651CE9B2012945DD96
:100C1000FF2D00D14FE707244B445B081C4038E709
:100C200007225A4B2D1A2340144032E7002C1DD1C5
:100C3000002B7AD14B46002B00D191E00A00002511
:100C4000B5E7013E002E19D14B446CE7FF2C84D14F
:100C5000FF25ACE74A468846D41A05E7002BC5D1E4
:100C60000A00FF28C8D005004B46A0E7002B49D159
:100C70004B46002B77D00A00FF2598E7FF2C00D0C9
:100C800043E787E70A00FF24002316E7002C15D16D
:100C9000002B57D1FF28E6D14B467BE7002C20D113
:100CA000002B57D04946002953D04B445A0168D5F0
:100CB0000724364A1C4001251340EAE6FF28EBD002
:100CC0008022D204764213431B2E53DC2025AD1B19
:100CD0001A00AB40F2405C1EA34113434B44050095
:100CE00021E7002BD8D04946002900D152E78021C6
:100CF000C9030F4200D14DE76046084200D049E7E2
:100D00004B4647E74846FF25002800D14FE78022A1
:100D1000D203174204D06046104201D14B468846A8
:100D200001224146FF250A4041E7484600281FD0DE
:100D30001A1A500120D54A460724D31A1C40884667
:100D40000025A6E6741CC9D0F643FF28BCD14B464B
:100D500020E799464B460025DB082BE7012340E7B7
:100D600000220023A9E680230022DB03FF24A4E65F
:100D700000251CE70123B1E7002AF1D0130000256C
:100D8000FCE60025FAE6C046FFFFFF7DFFFFFFFB04
:100D900041024200C30F490A120E00207E2A0DD9DB
:100DA0009D2A0CD8802000040143952A0ADC962055
:100DB000821AD1404842002B00D108007047034AF4
:100DC0009818FBE7963A9140F4E7C046FFFFFF7F93
:100DD00070B500283DD0C317C5185D40C40F28006A
:100DE00001F0C2FD9E22121A962A07DCD2B2082810
:100DF00033DD083885406802400A23E0992A0BDD7C
:100E0000052329001B1AD94003001B339D402B00EA
:100E10005D1EAB4119430D00052801DD431F9D40B8
:100E20002B000F490B406E0709D00F263540042DCB
:100E300005D004335D0102D59F220B40121A9B019D
:100E4000580AD2B24002D205400AE40710432043B8
:100E500070BD002400220020F4E76802400AF1E798
:100E6000FFFFFFFBF0B54F464646D6460C00090390
:100E7000C0B5490A470F5E0039431F03DB0F9C468C
:100E800065007B0A570F1F436D0DE40F760DA146D9
:100E9000C000B846D200AB1B64457BD0002B5FDDA1
:100EA000002E00D0A4E03E00164300D112E15E1EE9
:100EB000002E00D09EE1871A4346B84280410125AA
:100EC000C91A4042091A0B0200D431E149024E0A04
:100ED000002E00D16EE1300001F046FD0300083B1A
:100EE0001F2B00DD61E120223900D21A9E40D14043
:100EF0009F400E439D4200DD51E15D1B6B1C1F2B8B
:100F000000DD7CE12021C91A3D0030008F4088407F
:100F1000DD40791E8F41310007222843D94000254A
:100F200007433A40002A09D00F233B40042B05D049
:100F30003B1DBB42BF417F42C9191F000B0200D4B9
:100F400026E26A1CC64B55056D0D9A4200D106E19A
:100F5000C44AFF080A40530752023B43120B8EE07B
:100F6000002B00D0B8E06B1C5B055B0D012B00DC97
:100F700030E1871A4346B842B641CB1A76429E1BEF
:100F8000330200D54CE13B003343A1D100220024C1
:100F9000002570E0002B00DCE5E0002E00D183E0AE
:100FA000AF4EB54260D0802636043743B846382B62
:100FB00000DC3EE1434613431F007A1E97413F1871
:100FC00087428041404209180B0200D4B0E0A44B94
:100FD00001359D4200D1C3E0A24A7B080A400121AD
:100FE0000F401F435108D30707221F433A4099E798
:100FF0009B4EB54238D0802636043743B846382B4E
:1010000000DDDCE01F2B00DC30E11E004746203E07
:10101000F740BC46202B04D04026F31A46469E409B
:101020003243170063467A1E97411F43CCE0002BE2
:1010300000D104E24346134300D159E14B07C008F5
:1010400018438023C9081B03194208D04546ED0800
:101050001D4204D14346D008590708432900420FD6
:10106000C9007F4D1143C0004B07CA087C49C00826
:1010700003438D4268D012036D05120B6D0D0021E4
:1010800012031800130B0A0D12051A43764B2D0597
:1010900013402B435B00E4075B08234319001CBC8F
:1010A00090469946A246F0BD3E00164312D05E1E01
:1010B000002E00D000E18718874280414144404221
:1010C000091801250B0233D5022585E76446330054
:1010D000414610001D00C7E7002D00D0DAE00C00EB
:1010E0000443F3D05C1C00D19FE15D4CA64200D1CB
:1010F0002FE1DB43382B00DD66E11F2B00DD83E1B0
:1011000020240500E41A0F00DD40D940A0404346EA
:10111000A7405B1A441EA04198462F433843171A34
:10112000BA42924143465242991A64463500CAE691
:1011300007223A40002A00D0F6E64B07CA08484981
:10114000FF083B438D4296D11900114300D19EE127
:10115000802109030A431203120B414D8FE715004A
:10116000002200238BE7002B00D0C7E06B1C5F053B
:101170007F0D012F00DCF1E0394DAB4200D1B9E029
:1011800085180A0085428941424449425118072284
:10119000CF076D082F4349083A401D00C2E60722D9
:1011A0003049ED1A31403A40BCE63E0028388640CE
:1011B00000279FE6380001F0D7FB20308EE643463B
:1011C00013431F007A1E9741C71BB842804140421B
:1011D000091A78E60E003B0006431343002D61D147
:1011E000002E00D0F4E0002B00D11BE16446390052
:1011F000100039E71A4FBB427AD03300FFE63000C7
:101200001F3DE840202B03D04021CB1A9E4037439E
:101210007B1E9F41072207433A400021002589E7B2
:10122000171A4346BA42B641591A76428E1B644693
:101230004EE61F2B00DDADE020264746F61AB740EC
:10124000B9461700B246DF404E463E433700564689
:10125000B240561EB24117434246DA408918AEE604
:10126000FF070000FFFF7FFFFFFF0F80202647469C
:10127000F61AB740B9461700B246DF404E463E4325
:1012800037005646B240561EB24117434246DA4036
:10129000891A99E77F4CA6425BD0802424045B42E4
:1012A000214327E7002E0CD1002B00D1CBE0644670
:1012B00039001000774DD7E6764FBB4218D0330087
:1012C00075E6002B14D04B07C00818438023C908CB
:1012D0001B03194207D0FC081C4204D17907D0082F
:1012E0000843E14621004C46420FC9001143C000AB
:1012F000684DB9E61D0000220023C0E6002D5BD139
:101300000D00054300D1E2E65D1C00D1B0E0614D67
:10131000AE421FD0DB43382B71DC1F2B00DD96E083
:1013200020250F00ED1AAF40B9460700AA46DF405E
:101330004D463D432F005546A840D940451EA84183
:1013400088440743BF1897429241514241443500B7
:101350003AE6644635004146100085E60B0003433B
:10136000002D00D063E6002BF5D04346134300D197
:101370007AE6871887428041072241444042091893
:101380003A400B0200D4D5E6434B01351940C9E57C
:10139000380069E61E004746203EF740BC46202B39
:1013A00004D04026F31A46469E4032431700634657
:1013B0007A1E97411F4302E6364DAE42CAD08025C1
:1013C0002D045B422943A6E70843411E8841A6E657
:1013D000002B00D148E6871A4346B842B641CB1AE3
:1013E00076429E1B33024BD5171A4346BA429241AE
:1013F000591A5242891A072264463A4092E501433B
:101400000F00791E8F419DE71C000F00203CE74034
:10141000202B03D04024E31A99400843411E884101
:1014200038437CE60022002425E6171A4346BA42D8
:101430009241591A5242891A6446350043E54146A1
:101440001000144D10E680220024120380E61D00D7
:101450000F00203DEF40BC46202B03D04025EB1A67
:101460009940084307006346781E87411F4369E798
:10147000871897429B4141445B42C9183500A3E558
:101480003B003343CED0072231003A4052E60023DE
:101490001A00F4E5FF070000FFFF7FFFF0B5574695
:1014A000DE464E464546E0B5834607000E0348003B
:1014B00085B092461C00360B400DCD0F002800D1A0
:1014C0009DE0954B984239D08023F6001B041E43C3
:1014D000924A7B0F3343994694460300634400933A
:1014E00000230026FF00029323031B0B9846630092
:1014F000E40F52465B0D019400D1B3E086498B4264
:1015000000D19EE04246D100802212040A43514697
:10151000490F11438B46814952468C4600996344DA
:10152000CB1A0021D20000932B0063409A460F2E65
:1015300000D905E17A4BB6009B599F465B46334381
:10154000994600D0B8E002230826002700900293B5
:10155000CAE7CB463A0002990195019B9A460229B7
:1015600027D0032900D180E2012944D06D49009B96
:101570008C4663441C00002C38DD530700D013E276
:10158000D2085B46DB0109D55946674B19408B46AB
:101590008021C9008C46009B63441C00634B9C4225
:1015A00007DC5B4664055F075B0217431B0B620D9C
:1015B00002E000230027584A00211B031C0B0B0DDF
:1015C0001B05234314055A4A380013401C43534655
:1015D0006400DB0764081C43210005B03CBC904656
:1015E0009946A246AB46F0BD0122524201231B1B85
:1015F000382B00DCADE1002200230027DCE75B464E
:10160000334399465ED0002E00D18AE1300001F0CC
:10161000ABF903000B3B1C2B00DD7BE11D22D31A31
:101620005A460100DA4008398E4013005F463343C2
:1016300099468F403F4B00261B1A009300230293CC
:1016400052E7414653460B433B499B468C46009B21
:10165000634400935B46002B3BD1022300221E43D0
:10166000022161E7434613439B4637D04346002B94
:1016700000D162E1404601F077F903000B3B1C2BDF
:1016800000DD53E102004146083A914088461D21A1
:10169000CB1A5146D9400B0041460B439B4653465B
:1016A00093401A00009B25499C46604403008C46E9
:1016B00063440093002137E70323B14600900C26D2
:1016C000029311E7002300930133042600270293BD
:1016D0000AE70323C3461E43032125E701331E43C4
:1016E0000022012120E700239A46802300271B03C4
:1016F000094A61E7802349461B03194200D1E2E011
:101700005946194200D0DEE00B431B0317001B0BA8
:10171000A246014A50E7C046FF07000001FCFFFF58
:10172000705F0008FF030000FFFFFFFEFE070000E0
:10173000FFFF0F800DFCFFFF01F8FFFFF303000028
:10174000D94500D9CBE000D1C6E03C00484600278F
:10175000009B013B00935B46160E1B021E431302C7
:10176000984633041B0C9946310C0191FEF752FD4B
:101770004A4642430B04210C050019438A4207D90B
:101780008919013D8E4203D88A4201D9851E8919E3
:10179000881A0199FEF73EFD09048C464A46210449
:1017A00064464243090C030021438A4204D9891943
:1017B000013B8E4200D8F1E02D041D43AB46434669
:1017C000891A4246280C12041D0C5B46140C220098
:1017D0001B041B0C5A4303946B4344430295684318
:1017E0001B19150CEB189C4203D980246402A446F3
:1017F00060441C0C15041B042D0C20185D1981423B
:1018000077D373D00C1AA24A7D1BAF42BF419446D6
:10181000009B7F426344E01B1C00864200D1DBE05A
:101820000199FEF7F7FC4A4642430B04290C0700D6
:1018300019438A4207D98919013F8E4203D88A4247
:1018400001D9871E8919881A0199FEF7E3FC09045A
:101850004A46894629044D464243090C0300294360
:101860008A4207D98919013B8E4203D88A4201D99D
:10187000831E89193F04891A3A00039F1A433800CE
:1018800013041B0C584381460298150C6F434343C5
:1018900045434846000C8446DB1963449F4203D904
:1018A000802040028446654448461F0C00041B0407
:1018B000000C7D191818A94200D284E000D17FE005
:1018C00001231A4357E680234A461B0313431B0395
:1018D0001B0BAA466F4A6FE6BA4200D935E74B4662
:1018E000DC0758087B081C43FF0734E70024AF429D
:1018F00089D247444745A4415B466442A419641811
:10190000013BA6421ED2A0426DD800D1B6E0241AF7
:101910009B4678E703005A46283B9A4000279146A9
:1019200088E6584601F020F8203072E6030052465F
:10193000283B9A4093460022B4E6504601F014F842
:1019400020309AE6A642E2D1B845DCD9341A9B464B
:1019500059E71F2B65DC504C0099A4465C46614456
:1019600008008C4011008240D940501E82410C4337
:1019700014435A46DA401300620709D00F2222406E
:10198000042A05D02200141D9442894149425B1863
:101990001A0262D50122002300270DE68A4200D8F0
:1019A0000AE7831E891907E70F231340042B00D190
:1019B000E6E5171D9742924153429B44FA08E0E541
:1019C000002800D1D7E57118531EB14227D3A94290
:1019D00015D358D01A0073E7002B00DC04E601236E
:1019E00000229B44CDE502234744474589415B42A1
:1019F0009C46494289190C19E344241A03E74346DB
:101A00005F0047459B41B8465B429E19023A8919DF
:101A1000A94200D054E7404500D051E7ABE51A0099
:101A2000F6E71F215F4649420C1BE740202B07D0F9
:101A30001A49009B8C46634418005B4683401A4356
:101A4000501E82413A4307270023174009D00F2137
:101A5000002311401400042995D122005F075B0286
:101A60001B0BD20817430022A6E5802359461B030F
:101A70000B431B0317001B0B064A9DE5BD42B2D862
:101A80009B460024BFE68045B9D31A00C3E7C04691
:101A9000FF030000FF0700001E0400003E040000DA
:101AA000F0B54F464646D6468446C0B58046194EE8
:101AB00018030F034D00000B5C0082463F0B6D0DB9
:101AC000C90F9146640DDB0F0120B5420AD0B44224
:101AD00003D0A54201D157450CD01CBC9046994675
:101AE000A246F0BD66463E43F7D1AC42F5D154461E
:101AF0001443F2D10120C845EFD1994207D0002DFF
:101B0000EBD163461F433800471EB841E5E700208C
:101B1000E3E7C046FF070000F0B54F464646D6460D
:101B20004D00C0B50E03C90F8A462C491F035C0047
:101B30008046360B6D0D91463F0B640DDB0F8D42D9
:101B40001ED08C4216D0002D1ED130438446002C6E
:101B500001D13A4323D06246002A1AD09A4529D0AF
:101B6000514602200139084001381CBC9046994674
:101B7000A246F0BD39001143E5D002204042F4E70F
:101B80003043FAD1AC420FD0002C0FD13A43E7D00A
:101B90000CE00122013B934318000130E5E7634666
:101BA0000020002BE1D0DBE73A43E6D19A45D7D1BC
:101BB000A542D5DCA54205DBBE42D1D808D0002025
:101BC000BE42D2D250460123013898430130CCE7BF
:101BD000C845C5D80020C845F4D3C6E7FF070000B4
:101BE000F0B54F464646D6464D00C0B50E03C90F68
:101BF0008A462E491F035C008046360B6D0D9146C8
:101C00003F0B640DDB0F8D4218D08C4211D0002D9C
:101C100018D130438446002C1ED13A431CD1634670
:101C20000020002B30D051460220013908400138F5
:101C30002AE039001143EAD0022025E03043FBD1ED
:101C4000AC4226D0002C26D13A4324D15146022062
:101C500001390840013817E06246002A0FD09A4542
:101C6000E1D1A54205DBBE42DDD819D00020BE423D
:101C70000AD25046012301389843013004E0012282
:101C8000013B9343180001301CBC90469946A24684
:101C9000F0BD3A43D0D19A45C5D1A542C3DCE0E7B7
:101CA000C845C0D80020C845E3D3EDE7FF070000D2
:101CB000F0B55746DE464E464546E0B5834606003B
:101CC0000F03480087B092461D003F0B400DCC0F1C
:101CD000002800D16FE0DE4B984238D08023FF000F
:101CE0001B041F43730F3B430193DA4B00279946B4
:101CF00000239B46F60081442B0369001B0B5246D0
:101D00009846490DED0F002900D185E0D04B99424E
:101D100000D173E04346DA0080231B04134352468C
:101D2000CC48520F84461343524600206144D200EF
:101D300089442100694000918C46012149448A462A
:101D40000F2F00D990E0C449BF00CF59BF465B4672
:101D50003B43019300D06AE1022308270026814615
:101D60009B46C9E732005846019B61460091022814
:101D700000D175E0032800D1FEE1012800D02CE15C
:101D800000230027002600253F032A0D3F0BB34800
:101D900012053A4302401B051343009A5B00D1072A
:101DA0005B080B433000190007B03CBC90469946D5
:101DB000A246AB46F0BD5B463B43019300D12FE109
:101DC000002F00D1A5E1380000F0CEFD03000B3B51
:101DD0001C2B00DD96E11D22D31A5A460100DA4081
:101DE0005E4608398F4013008E403B4301939C4B65
:101DF00000271B1A994600239B467DE74146534620
:101E00000B4393498C46E144002B00D01AE1022297
:101E10000220174300228CE7134300D10DE1434613
:101E2000002B00D181E1404600F09EFD02000B3AFC
:101E30001C2A00DD72E10100434608398B409846B8
:101E40001D239A1A5346D3401A0043461343524661
:101E50008A404946081A824989468144002068E739
:101E60007B4B002700268EE7140C1204120C110085
:101E7000370C3604350C794328008C462E0060431D
:101E80006044834656432100300C804658467943CF
:101E900040440291844506D98846802149028C46F7
:101EA000E044414602913604010C360C00048B4696
:101EB00081191E0C1B041B0C0391190079438C46DD
:101EC000280075436544A8465843050C45447743AC
:101ED000A94203D9802149028C466744290C8C46CB
:101EE00039000004000C2D042D186144AB44059109
:101EF0005946049101990F043F0C080C39005143D5
:101F00004243904602008C46090C8B4662437C4358
:101F100044445C44A04503D9802149028846424498
:101F2000210C884661460904090C8C463900594346
:101F3000434370437E430F0CF6182404BE196444D7
:101F400042448C46B34203D980235B029846404406
:101F5000029B61469846049B370443449B46AB452D
:101F6000AD416B420D0405992D0C8C467F196744D9
:101F7000FD18A8465D462D19A542A441934664422A
:101F8000A446C344DC448F42BF4198459B419345DE
:101F90009241A445A4415B427F421F43360C52420A
:101FA0006442BF192243BF18624638184302D20D5B
:101FB000039913436A020A43501E82416146ED0DA4
:101FC0002A434E023243D90100D4B3E0012650081F
:101FD00032400243DE0732435B08224C5444002C5B
:101FE00062DD510709D00F201040042805D0101DD4
:101FF0009042924152429B180200D90104D580249C
:102000001948E400034054441848844200DD27E79F
:102010005E075B02D2081F0B630516435B0DB2E639
:10202000002399460133042700269B4664E60323D8
:10203000019781460C279B465EE60122012017434B
:10204000002276E6032303201F43434671E6C04681
:10205000FF07000001FCFFFFB05F0008FFFF0F80DB
:102060000DFCFFFFFF030000FFFFFFFEFE07000067
:102070000023802700933F030026434B83E6019B08
:102080003200A446584670E6AC466EE680270199B9
:102090003F0339422DD03B422BD11F433F033F0B1F
:1020A00000951600384B6EE601252D1B382D00DDFE
:1020B00066E61F2D40DC35481C0050441600824067
:1020C0008440EE40501E824134431443EB4062078B
:1020D00009D00F222240042A05D02200141D944268
:1020E000804140421B181A023ED5012300270026DA
:1020F00049E68027019B3F031F433F033F0B0094AA
:10210000214B40E603005A46283B9A4000260192A4
:102110006DE6584600F028FC203057E60300524692
:10212000283B9A401300002293E6504600F01CFC26
:1021300020307BE6CA4650E71F201E004042041BA9
:10214000E640202D03D0124C5444A3401A43501EA5
:102150008241324307260027164009D00F20002372
:10216000104014000428B9D122005E075B021F0B47
:10217000D2081643002306E680273F031F433F0390
:102180003F0B1600004BFEE5FF0700001E04000099
:102190003E040000F8B557464E464546DE460C0064
:1021A0000903E0B5490A460F5F0031431E03DB0F08
:1021B000760A9B46530F3343C84E6500C000E40FB8
:1021C000D2006D0DA24681467F0D9C469046B742D7
:1021D00000D1B9E05B46012673409B46EE1BA34548
:1021E00000D183E0002E63DD002F00D0B1E0634614
:1021F000134300D123E1731E002B00D0BAE1861AED
:102200006346B04280410125C91A4042091A0B02B7
:1022100000D447E149024B0A98464346002B00D1BF
:1022200089E1404600F0A0FB0300083B1F2B00DDC6
:102230007CE120223000D21A4146D0409940020071
:102240009E400A439D4200DD6AE15D1B6B1C1F2B13
:1022500000DD94E1202110003500C91A8E40DA40DB
:102260008840DD40711E8E41110007222843002561
:1022700006433240002A09D00F233340042B05D0F7
:10228000331DB342B641764289191E000B0200D4B9
:102290003DE26A1C914B55056D0D9A4200D119E142
:1022A0008F4AF6080A40570752023743120B9BE049
:1022B000002E00D0C5E06E1C7605760D012E00DCE8
:1022C00048E16746861ACB1BB042BF417F42B84601
:1022D0001F004346FF1A3B00B8461B0200D55FE1D2
:1022E00037439AD100220024002579E0002E00DC3B
:1022F000FAE0002F00D18DE0784B9D4267D080231B
:1023000067461B041F43BC46382E00DC52E163467F
:1023100013435A1E93411E188642804140420918B9
:102320000B0200D4BEE06D4B01359D4200D1D2E0DE
:102330006B4A73080A4001210E401E435108D3071F
:1023400007221E43324095E71E00164300D045E7A2
:1023500040E7624B9D423AD0802367461B041F43EF
:10236000BC46382E00DDEBE01F2E00DC3AE13300E6
:102370006746203BDF403B00202E05D04027BF1B97
:102380006646BE40324390464646721E96413343EF
:10239000DAE0002B00D114E26346134300D168E178
:1023A00080234E07C008C9081B030643194208D002
:1023B0006046C008184204D163460100D2085E0797
:1023C0001643F3009946C900720F444D11434B4622
:1023D000DE08424B4F073743CA089D4200D16EE0EA
:1023E00012036D05120B6D0D00211203130B0A0D64
:1023F00012051A433B4B2D0513402B435B00E407AA
:102400005B082343380019003CBC90469946A2461D
:10241000AB46F8BD6346134311D0731E002B00D0AA
:1024200007E186188642804161444042091801252F
:102430000B0237D502257BE73E0061469146350009
:10244000C5E75C46002D00D0E1E00B000343F3D06C
:10245000731C00D1ACE1214B9F4200D13AE1F34320
:10246000382B00DD6FE11F2B00DD8CE120250E00F5
:10247000ED1AAE40B0460600AA46DE40454635435A
:102480002E005546D940A8406346451EA8415B1A18
:102490009C463043161AB242924163465242991A00
:1024A0003D00B4E607223240002A00D0E4E60B4BA0
:1024B000F6084F073743CA089D4200D090E73B001B
:1024C000134300D1A6E180231B031A431203120B0E
:1024D000024D89E715000022002785E7FF0700006D
:1024E000FFFF7FFFFFFF0F80002E00D0C7E06B1CB7
:1024F0005E05760D012E00DCF0E0C84DAB4200D148
:10250000B9E085180A008542894162444942511860
:102510000722CE076D082E43490832401D00A9E668
:10252000BF49ED1A114007223240A3E63200283895
:102530008240002686E6300000F016FA203073E66E
:10254000634613435A1E9341C61AB042804140422B
:10255000091A5CE60E00674606431743002D5ED15C
:10256000002E00D0F3E0002F00D11EE15C46614652
:1025700091462CE7A94FBE427BD01E00F1E6100029
:102580001F3DE840202B03D04021CB1A9A40164330
:10259000731E9E410722064332400021002583E737
:1025A000161A6346B2428041591A40420B1A9846A5
:1025B0005C4632E61F2E00DDABE02027BB1B9A46AF
:1025C00063465746BB40994613004F46F3401F43AE
:1025D0003B005746BA40571EBA4113436246F24089
:1025E000891898E62027BB1B9A4663465746BB408E
:1025F000994613004F46F3401F433B005746BA40ED
:10260000571EBA4113436246F240891A9CE7834B36
:102610009F425FD080252D047342294320E7002E7E
:102620000CD1002F00D1D0E05C46614691467B4D35
:10263000CDE67A4FBE421CD01E0065E6002F18D0B2
:10264000C0084E0706438020C9080003014208D095
:102650006346DC08044204D12100DA46D2085E0752
:102660001643F300994601245346C900720F1143E3
:102670001C406A4DABE61D0000220027B4E6002D89
:1026800059D10B00034300D1D6E6731C00D1B2E050
:10269000624B9F421ED0F343382B6FDC1F2B00DDB3
:1026A00097E020250E00ED1AAE40B0460600AA467F
:1026B000DE40454635432E005546A840D940451ECC
:1026C000A8418C440643B618964292415142614457
:1026D0003D0025E63D006146914678E60B00034348
:1026E000002D00D055E6002BF5D06346134300D1F2
:1026F0006DE68618864280416144404209180022F6
:102700000B0200D4D0E6464B01351940B2E5B14684
:102710005DE633006746203BDF403B00202E05D0BE
:102720004027BF1B6646BE40324390464646721E57
:1027300096413343EFE5394B9F42CBD080252D04A2
:1027400073422943A8E70843411E8841A2E6002FAF
:1027500000D13CE66346861ACF1AB0429B415B42E9
:10276000FB1A98461B024ED5161A6346B242924196
:10277000591A5242891A5C4600227BE501430E0039
:10278000711E8E419FE71D000E00203DEE40B046B9
:10279000202B04D04025EB1A994008438146484637
:1027A0004346411E8841184374E60022002417E680
:1027B000161A6346B2429241591A5242891A3D0092
:1027C00025E561469146154D01E68022002412035D
:1027D00079E61D000E00203DEE40B046202B04D0CF
:1027E0004025EB1A9940084381464E464346711EE8
:1027F0008E411E4367E7861896429B4161445B42C7
:10280000C9183D008CE547463743CED007224146E4
:10281000324049E600273A00E6E5C046FF070000DF
:10282000FFFF7FFF30B5144D0A034B00120B5B0D09
:10283000C90F0024AB4211DD104CA34210DC8024F0
:10284000640322430E4CE41A1F2C0CDD0D48C31AFE
:10285000DA4013005C42002900D11C00200030BD8A
:10286000094BCC18FAE7094DE040AC4663449A4066
:1028700013000343EEE7C046FE0300001D04000002
:102880003304000013040000FFFFFF7FEDFBFFFF98
:1028900070B500282DD0C317C5185D40C40F28009F
:1028A00000F062F8154B1B1A5B055B0D0A2815DD5D
:1028B0000B38854000222D032D0B002110002D0325
:1028C0000A0D2D0B12052A430D4D1B052A401343FB
:1028D0005B00E4075B082343190070BD0200290078
:1028E000153291400A000B21081AC5402D032D0B0B
:1028F000E3E70024002300250022DEE71E04000099
:10290000FFFF0F8010B5041E25D000F02DF8144BEA
:102910001B1A5B055B0D0A2812DD0B388440002270
:102920002403240B0021100024030A0D240B12059C
:1029300022430C4C1B05224013435B00590810BD79
:1029400002002100153291400A000B21081AC440F0
:102950002403240BE6E7002300240022E2E7C0461C
:102960001E040000FFFF0F801C2101231B0498425E
:1029700001D3000C10391B0A984201D3000A083910
:102980001B09984201D30009043902A2105C4018C7
:102990007047C0460403020201010101000000006B
:1029A0000000000082B00A4B596980208002014378
:1029B00059615A6902400092009A5A698021C902FD
:1029C0000A435A615B690B400193019B02B0704757
:1029D0000010024010B50E480E4B036082235B00CE
:1029E000436000238360F0221201C26003614361EF
:1029F0008022D20282611022C2610362436283623A
:102A0000093AC26203630833436300F0DDFB10BD83
:102A1000580800200030014000B583B0094A5169D0
:102A2000012319435161526913400193019B002214
:102A300000210A2001F04CFB0A2001F07BFB03B0CF
:102A400000BDC0460010024030B597B010220021F2
:102A500012A802F06FF80822002110A802F06AF80C
:102A60001C22002109A802F065F82022002101A8FB
:102A700002F060F81F4D204B2B60FA23DB006B60E7
:102A80000024AC606323EB602C616C61AC612800B6
:102A900001F084FD80235B01129312A9280001F04C
:102AA00077FE280001F094FD1094119410A92800DD
:102AB00001F006FF602309932E3B0A930B940C94BC
:102AC0000D940E940F94002209A9280001F0DEFD58
:102AD0000194029403940494059480239B0106932B
:102AE000089401A9280001F021FF280000F02CFA29
:102AF00017B030BD0C080020002C014010B507486D
:102B0000074B036008234360063B83600361002397
:102B10008361C361036201F041FF10BDBC08002066
:102B2000005C0040F0B5072822D8072920D80F2ADA
:102B300003DC002A02DA002200E00F22002415E064
:102B4000012515400B4B9C46E3005B185B00664675
:102B50009F5B3EB26D426E40B6B201258540354066
:102B60007D4066469D5352100134E4B2032CE7D9F0
:102B7000F0BDC046740B0020F8B5061CFEF708F93E
:102B800004000C4A83009D58431C9B009958281C44
:102B9000FDF73AFF071C2000FEF71AF9311CFDF77C
:102BA00033FF011C381CFDF7FDFD291CFDF760FCFF
:102BB000F8BDC0460800002010B598B030220021B2
:102BC0000CA801F0B7FF1022002107A801F0B2FF06
:102BD0001C220021684601F0ADFF20230B931F3B10
:102BE00013930BA800F042FC07230793043B0893C0
:102BF000002409940A94012107A800F021FF8023F2
:102C00009B0200930694684600F0BAFF18B010BD0E
:102C1000F0B583B001F088F8FFF7CEFFFFF7C2FEF2
:102C2000FFF7FAFEFFF7D6FEFFF70EFFFFF766FF8E
:102C3000534C200000F0C8FA04225249200000F052
:102C400029FB0123082B08D94F4C200001F08FFBF2
:102C50000021200001F01BFE8AE00022032A09D88F
:102C60005C1E1802D10009194900484C0853013272
:102C7000D2B2F3E70133DBB2E4E7301FFFF708FE1F
:102C80000022FF239B05FFF713F804000D0001F05D
:102C900067F8FFF737FE00223D4BFEF7FFFB01F020
:102CA00097FF02000B0020002900FFF701F80090B9
:102CB0000191381FFFF7ECFD0022FF239B05FEF773
:102CC000F7FF04000D0001F04BF8FFF71BFE002298
:102CD000304BFEF7E3FB01F035FF02000B00200054
:102CE0002900FEF7E5FF02000B0000980199FEF7AE
:102CF000B9F80022284BFEF7DBFF04000D0001F0BD
:102D00002FF8FFF7FFFD0022244BFEF7C7FB020060
:102D10000B0020002900FEF7A5F801F059FF002262
:102D20001F4BFEF7C5FF00221D4BFEF79BF8FFF778
:102D300079FD00B21B4B1880FEF74AF8FFF71CFF25
:102D4000FEF726F802B239003000FFF7EBFE01373C
:102D5000FFB2072F91D90136F6B2072E01D800270E
:102D6000F7E700F0FDFF104B1B68C01A0F4B18600F
:102D700000F0F6FF0C4B186000225A600026ECE7CA
:102D800058080020000000200C080020740B0020D0
:102D900000407F4000C07240000024400088C340D3
:102DA000000040404C080020500800200808002087
:102DB00070477047FEE77047704710B500F0C4FFDA
:102DC00010BD000010B5024801F029F910BDC04641
:102DD000300B002010B5134B1B681B69DB0703D4B5
:102DE000104801F0DBFA10BD0F4801F06DF9012821
:102DF000F6D10E4B197801310322114019704A1D8A
:102E000003231A40074B186864235343836200234B
:102E100043620901064BC9180822064800F03AFA35
:102E2000DEE7C0460C080020300B0020040800201C
:102E3000740B00205808002082B00A4B99690122C7
:102E40001143996199690A400092009ADA698021D8
:102E500049050A43DA61DB690B400193019B02B02B
:102E60007047C0460010024010B588B0040014221C
:102E7000002103A801F05EFE1F4B22689A4201D098
:102E800008B010BD1D4B9969802040010143996134
:102E90009A6902400192019A5A69802189020A4383
:102EA0005A615B690B400293029BF0230393EE3B54
:102EB000049301330693902003A9C00500F056FF48
:102EC0000F48104B0360102343600023836080226F
:102ED000C260803202618022D20042618361C3619C
:102EE00001F03AF8002803D1054B63655C62C7E73F
:102EF000FFF75EFFF8E7C0460030014000100240D7
:102F0000300B00203000024000B583B002680C4B4B
:102F10009A4201D003B000BD0A4A916980200001A5
:102F200001439161936903400193019B00220021B9
:102F30000D2001F0CDF80D2001F0FCF8EAE7C046C5
:102F4000002C01400010024010B586B0040014228D
:102F5000002101A801F0EEFD22680D4B9A4201D03C
:102F600006B010BD0B4A51698020C0020143516177
:102F7000536903400093009B80239B01019302232C
:102F80000293059301A9044800F0F0FEE8E7C0466B
:102F9000002C0140001002400004004882B002688A
:102FA000074B9A4201D002B07047064AD16980208F
:102FB00000040143D161D36903400193019BF2E70F
:102FC000005C0040001002404022835A02490B433B
:102FD0009BB283520020704780BFFFFF4022835A7C
:102FE00002490B40835200207047C0467F400000DA
:102FF00084B010B5039104920593402201238352BB
:1030000000238352043283520C328352FFF7DCFFD9
:10301000002010BC08BC04B018470000F8B506003A
:103020000C0017001D0033689B6823401B1B5A428D
:103030005341BB423BD06B1CF5D000F091FE069B88
:10304000C01AA84201D2002DEDD132685368E021A8
:103050008B43536082235B0072689A420CD08023BA
:103060009B01B26A9A4216D05D230122F254013BC1
:103070000022F25403201BE0B36880221202934224
:1030800003D08022D2009342E9D1326813684021F4
:103090008B431360E3E73268136806490B40136003
:1030A0003268116880239B010B431360DCE700202A
:1030B000F8BDC046FFDFFFFFF8B507000C001500A4
:1030C0001E0001E0731C0CD13A6893682340AB42A8
:1030D00041D0C023DB009C42F4D1002DF2D1137B00
:1030E000F0E700F03DFE069BC01AB04201D2002E70
:1030F000EAD13A685368E0218B43536082235B0036
:103100007A689A420CD080239B01BA6A9A4216D000
:103110005D230122FA54013B0022FA5403201BE0F4
:10312000BB6880221202934203D08022D2009342D5
:10313000E9D13A68136840218B431360E3E73A68AA
:10314000136806490B4013603A68116880239B019D
:103150000B431360DCE70020F8BDC046FFDFFFFF34
:1031600070B582B004000D001600C02100922B0043
:1031700000224901FFF7A0FF002818D100962B007C
:10318000002280212000FFF749FF002816D1C0212E
:1031900000962B000022C9002000FFF78DFF0028B9
:1031A0000AD0236E202213432366032004E0236EFB
:1031B000202213432366032002B070BD236E202219
:1031C000134323660320F7E710B5041E5ED00023E7
:1031D00083625D33C35C002B4CD05D230222E2543A
:1031E0002268136840218B431360E368E022D20019
:1031F000934245D90022F02109018B4205D0E021FC
:10320000C9008B4201D00021A162216B002905D1A8
:10321000E021C9008B4236D9022323636368A16889
:103220000B4321690B4361690B4380218900A0692D
:1032300001400B43E1690B43216A0B432168A06AFB
:1032400003430B60618B04230B40616A0B43616B8A
:103250000B43E1680B43216813434B602268D36939
:103260000B490B40D361002323665D330122E254F6
:10327000002010BD5C330022C254FFF7F5FDACE71F
:1032800080225201B7E701232363C7E70120F0E75B
:10329000FFF7FFFF10B504005C23C35C012B00D1D6
:1032A00086E05C230120E0540133E35C012B04D071
:1032B00002205C230022E25410BD002974D0002AB1
:1032C00074D05C330230E05400232366A163A287EC
:1032D000E28723642365E3644422A3520232A352AB
:1032E00080231B02A2689A422ED0636D314ADA62B3
:1032F000636D314A9A62636D304A1A63636D0022CE
:103300005A63226853682E490B405360E023DB0068
:10331000E2689A4205D8636D5A698023DB009A42BD
:1033200019D022680C32E38F9BB2A16B606D00F064
:103330003BFE002825D0236E1022134323665D2315
:103340000F3AE2540120B4E7226811688023DB01C0
:103350000B431360C9E7E38FDB0707D42268536888
:103360000B405360E38F5B08E387DAE7226851681C
:103370008023DB010B435360E38F5B080133E3875A
:10338000CFE723681A68520603D41A6840210A431B
:103390001A602268536820210B43536022685368E7
:1033A0001E390B43536084E7012082E7012080E748
:1033B000022081E7C9330008F7330008D53300083D
:1033C000FFBFFFFF7047704710B5406AFFF7FBFF74
:1033D00010BD704710B5406A0268536803218B43E3
:1033E0005360036E1022134303665D230F3AC254E9
:1033F000FFF7EFFF10BD30B583B00500446A00F061
:10340000AFFC2B681B689B0626D4226853682021DA
:103410008B435360226853681E398B43536002000C
:1034200062312000FFF79CFE002803D0236E20228B
:1034300013432366A368002B06D101932368DA683F
:1034400001929B680193019B0023E3875D33012276
:10345000E254236E002B04D12000FFF7B3FF03B02A
:1034600030BD2000FFF7B5FFF9E7000070B582B06E
:10347000041E00D185E20368DB072BD5B34B5A68E5
:103480000C231340042B1DD0B04B5A680C2313405F
:10349000082B0ED06368012B41D0002B56D1AB4BCB
:1034A0001A68AB490A401A601A68AA490A401A60A9
:1034B0003BE0A64B5B68C0225202134080225202BE
:1034C0009342E7D1A14B1B689B0303D56368002B94
:1034D00000D159E223689B0778D59C4B5B680C228E
:1034E0001A4262D0994B5A680C231340082B53D0D0
:1034F000E368002B00D18BE0944A136801210B4351
:10350000136000F02DFC0500904B1B689B0776D4E0
:1035100000F026FC401B0228F6D9032032E28B4A39
:10352000116880235B020B4313606368002B25D076
:1035300000F016FC0500854B1B689B03CAD400F005
:103540000FFC401B6428F6D903201BE2052B09D091
:103550007E4B1A687E490A401A601A687D490A4003
:103560001A60E2E7794B19688022D2020A431A6096
:103570001968802252020A431A60D6E700F0F0FB75
:103580000500724B1B689B03A4D500F0E9FB401BB0
:103590006428F6D90320F5E16C4B5B68C022520227
:1035A0001340802212029342A2D1684B1B689B07F2
:1035B00004D5E368012B01D00120E3E163490B68E6
:1035C000F82293432269D20013430B6023681B0740
:1035D00044D5E369002B2ED05C4A536A01210B438A
:1035E000536200F0BDFB0500584B5B6A9B0735D466
:1035F00000F0B6FB401B0228F6D90320C2E1534974
:103600000B68F82293432269D20013430B60DDE775
:103610004E4A136801218B43136000F0A1FB0500A3
:103620004A4B1B689B07D1D500F09AFB401B022830
:10363000F6D90320A6E1454A536A01218B43536220
:1036400000F08EFB0500414B5B6A9B0706D500F03E
:1036500087FB401B0228F6D9032093E123685B0710
:1036600000D47FE0394BDB69DB001DD4374AD169D8
:10367000802040050143D161D36903400193019B40
:103680000125354B1B68DB0510D5A368012B21D024
:10369000002B36D12D4B1A6A01218A431A621A6A0D
:1036A00003318A431A621AE00025EAE72A4A1168C0
:1036B00080235B000B43136000F052FB0600264B97
:1036C0001B68DB05E1D400F04BFB801B6428F6D9B6
:1036D000032057E11D4A136A01210B431362A368BB
:1036E000002B24D000F03CFB0600184B1B6A9B0704
:1036F00036D400F035FB801B184B9842F5D90320D7
:1037000040E1052B09D0114B1A6A01218A431A6244
:103710001A6A03318A431A62E1E70C4B1A6A0421E0
:103720000A431A621A6A03390A431A62D7E700F099
:1037300017FB0600054B1B6A9B0711D500F010FB19
:10374000801B064B9842F5D903201BE10010024074
:10375000FFFFFEFFFFFFFBFF00700040881300002B
:10376000012D3AD02368DB0610D56369012B3AD0CE
:10377000053358D1884A536B04218B435363536BF1
:10378000F4318B43A169C9000B43536323689B0643
:1037900000D482E0804B5A680C2313400C2B60D07D
:1037A0007D4B5A680C231340082B53D0236A002BFF
:1037B00060D0794A516B80235B020B43536300F066
:1037C000CFFA0500744B5B6BDB0366D400F0C8FADC
:1037D000401B0228F6D90320D4E06F4AD3696F4911
:1037E0000B40D361BEE76C4B5A6B04210A435A630A
:1037F0005A6B03390A435A6300F0B2FA0500664B6C
:103800005B6B9B0706D400F0ABFA401B0228F6D98D
:103810000320B7E060494B6BF8229343A269D200C2
:1038200013434B63B2E75C4B5A6B04210A435A6360
:103830005A6B03398A435A6300F092FA0500564BDB
:103840005B6B9B07A2D500F08BFA401B0228F6D9D0
:10385000032097E0504B5B68C02252021340934212
:10386000A4D14D4B5B6BDB0317D5236A012B14D01E
:10387000012087E0484A536B49490B40536300F0ED
:103880006FFA0500444B5B6BDB0306D500F068FA6A
:10389000401B0228F6D9032074E0636A002B00D194
:1038A00074E03D4A51680C220A40082A4DD0022B90
:1038B00012D0394A13683B490B40136000F050FAAC
:1038C0000400354B1B689B013DD500F049FA001BF5
:1038D0000228F6D9032055E02F4A136831490B40DE
:1038E000136000F03DFA05002B4B1B689B0106D5C9
:1038F00000F036FA401B0228F6D9032042E0264B9E
:10390000DA6A0F218A43216B0A43DA625A68264930
:103910000A40E16AA06A01430A435A60196880229A
:1039200052040A431A6000F01BFA04001A4B1B6889
:103930009B0106D400F014FA001B0228F6D90320DC
:1039400020E000201EE000201CE0012B20D0124BC4
:103950005A68D96AC0235B021340A06A834201D02F
:1039600001200FE00F230B40216B8B4201D001207F
:1039700008E0F0239B031A40E36A9A420AD0012030
:1039800000E0012002B070BD0120FBE70020F9E754
:103990000120F7E70020F5E700100240FFFFFFEFEE
:1039A000FFFFFEFFFFFFFFFEFF7FC2FF30B589B0C4
:1039B00004AA1F4B180032C832C2110002680A6004
:1039C0006A46103313CB13C21B681360194B5A6835
:1039D0000C231340082B04D00C2B26D0164809B01A
:1039E00030BD910C0F23194004A8445C1149C96AE9
:1039F0000B406946C95CC0235B021A4080235B020E
:103A00009A4208D0C0235B029A4209D00A48FCF7C8
:103A10007BFB6043E3E70848FCF776FB6043DEE7A7
:103A20000648FCF771FB6043D9E70448D7E7C04676
:103A3000105F00080010024000127A00006CDC02E7
:103A400070B504000D00002800D189E0464B1A68CB
:103A5000012313408B420BD243490B68012293434D
:103A60002B430B600B681A40AA4201D0012078E07A
:103A700023689A070ED55B0705D53C4A5168E023B9
:103A8000DB000B435360394A5368F0218B43A16834
:103A90000B4353602368DB0735D56368012B09D0DE
:103AA000022B24D0032B28D0304A1268920705D469
:103AB000012056E02D4A1268920353D52B494A68DB
:103AC0000320824313434B6000F04AF90600274B62
:103AD0005B680C221A4063689B009A4213D000F086
:103AE0003FF9801B224B9842F1D9032039E01F4A4D
:103AF00012689201E2D4012033E01C4A526BD203D7
:103B0000DCD401202DE0184B1A6801231340AB428E
:103B10000BD915490B68012293432B430B600B68AB
:103B20001A40AA4201D001201BE023685B0706D59A
:103B30000E4A53680F490B40E1680B435360FFF78F
:103B400035FF0A4B5A6812090F2313400A4AD35C07
:103B5000D8400A4B1860002000F0BEF8002000E0BA
:103B6000012070BD0120FCE700200240001002404F
:103B700088130000FFF8FFFFF05F0008E007002057
:103B800070B582B004000368DB0335D54B4BDB69AD
:103B9000DB0066D4494AD169802040050143D161E8
:103BA000D36903400193019B0125454B1B68DB054D
:103BB00059D5424B1B6AC0229200134013D0616852
:103BC0000A409A420FD03D4B186A3E4A02401E6A94
:103BD0008021490231431962196A3B4E3140196212
:103BE0001A62C30753D4354A136A36490B406168D9
:103BF0000B431362012D59D02368DB0706D52F4AEA
:103C0000136B03218B43A1680B43136323689B074A
:103C100006D52A4A136B2D490B40E1680B43136309
:103C200023689B0606D5254A136B10218B43216917
:103C30000B43136323689B0306D5204A136B802133
:103C40008B43A1690B43136323685B0533D51B4A80
:103C5000136B40218B4361690B431363002002B057
:103C600070BD0025A1E7164A116880235B000B4355
:103C7000136000F075F80600114B1B68DB0598D443
:103C800000F06EF8801B6428F6D90320E7E700F007
:103C900067F80600094B1B6A9B07A4D400F060F884
:103CA000801B0B4B9842F5D90320D8E7D36909490B
:103CB0000B40D361A0E70020D1E7C04600100240CE
:103CC00000700040FFFCFFFFFFFFFEFFFFFFFCFF57
:103CD00088130000FFFFFFEF10B504000F4B1978A9
:103CE000FA208000FCF710FA01000D4B1868FCF771
:103CF0000BFA00F02BFA00280DD1032C01D901207A
:103D00000AE0013000222100404200F0E1F9054BB9
:103D10001C60002000E0012010BDC046D807002034
:103D2000E0070020DC07002010B5064A13681021C8
:103D30000B4313600020FFF7CFFFFFF77DF8002053
:103D400010BDC04600200240034A1168034B1B7897
:103D50005B1813607047C046B40B0020D8070020E2
:103D6000014B18687047C046B40B0020F0B5C6463A
:103D700000B582B0002338E0042600E00026AE4003
:103D800035003D430234A400574EA551574C2568D9
:103D90004246D4432E0026404A68D20302D542460A
:103DA00015432E00514D2E606D682E0026404A6846
:103DB000920302D5424615432E004C4D6E60AD680D
:103DC0002E0026404A68D20202D5424615432E00F4
:103DD000464DAE60ED682C404A68920202D54246DC
:103DE0002A431400414AD46001330A681400DC40BD
:103DF00076D001259D402A409046F5D04C68022C93
:103E000001D0122C0ED1DC080834A4002758072654
:103E10001E40B6000F22B24097430A69B240160016
:103E20003E43265002685F0003242600BE40F6434E
:103E3000324094464A681440BC40624614430460D1
:103E40004C68621E012A03D9112C01D0122C10D10A
:103E500084683440A446CC68BC4062461443846005
:103E60004468AC434A681209012515409D4025432A
:103E70004560C46826408C68BC403443C4604A68CE
:103E8000D200B1D51A4DAE6901242643AE61AD69A9
:103E90002C400194019C9C08A51CAD00124EAF590A
:103EA00003261E40B5000F26AE40B7439026F60508
:103EB000B04200D162E70F4EB0420BD00E4EB0427E
:103EC0000AD00E4EB04209D00D4EB04200D153E799
:103ED000052654E7012652E7022650E703264EE75F
:103EE00002B004BC9046F0BD000001400004014057
:103EF000001002400004004800080048000C004880
:103F00000010004870B5C56B0124066CB4406C60AD
:103F1000046863604368102B04D0036899600368E9
:103F2000DA6070BD03689A600368D960F9E7000041
:103F300010B504000368064A94466344180014212F
:103F4000FCF7E2F880002064024BE36310BDC0463A
:103F5000F8FFFDBF0000024070B5041E20D02125EF
:103F60000223435501680B680E4A1A404368806873
:103F70000343E06803432069034360690343A06986
:103F80000343E069034313430B602000FFF7D0FFB6
:103F90000023A363012262551F32A354002070BD89
:103FA0000120FCE70FC0FFFF70B504002020205C5B
:103FB000012832D02020012525540130205C012821
:103FC00004D020230022E254022070BD20300135AD
:103FD00025540020A063256828680126B043286086
:103FE0002000FFF78FFFE36A002B0BD022681368D5
:103FF0000E210B4313602268136801210B431360E9
:104000000020E2E7226813680A210B43136022684C
:10401000136806398B431360EDE70220D5E770B5CE
:10402000C36B1A6804682568016C04238B401A422C
:1040300012D06B0710D523689B0603D42368042293
:1040400093432360C26B0423016C8B405360C36AAB
:10405000002B00D0984770BD02238B401A4218D025
:10406000AB0716D523689B0606D423680A22934320
:1040700023602123093AC254C26B0223016C8B4096
:10408000536020230022C254836A002BE3D0984758
:10409000E1E708238B401A42DDD02B07DBD52368EC
:1040A0000E2293432360C26B01231900046CA140CC
:1040B00051608363212283541F330022C254036B57
:1040C000002BC8D09847C6E72123C05CC0B2704718
:1040D00070B5002811DB8308144DC0339B005C5978
:1040E00003221040C000FC3216008640B443890110
:1040F0000A40824022435A5170BDC0B20F23034090
:10410000083B9B0806339B00094A944663445D685C
:1041100003242040C000FF2214008440A5438901ED
:104120001140814029435960E6E7C04600E100E0C4
:1041300000ED00E0002805DB1F2318401E3B8340F4
:10414000014A13607047C04600E100E001380A4BA5
:1041500098420FD8094A50600948036A1B021B0A9B
:10416000C02109060B4303620023936007331360E9
:10417000002070470120FCE7FFFFFF0010E000E097
:1041800000ED00E030B5036A012293430362036A45
:10419000426884697325AC430D682C430225AB4308
:1041A0008D682B43144DA84208D0144DA84205D069
:1041B000134DA84202D0134DA84205D10825AB43A8
:1041C000CD682B430425AB430B4DA84208D00B4DC3
:1041D000A84205D00A4DA84202D00A4DA84205D1F6
:1041E000094D2A404D692A438D692A434260846102
:1041F0004A684263036230BD002C01400040014028
:104200000044014000480140FFFCFFFF70B5036A15
:10421000194A13400362036A4268C4697325AC43B8
:104220000E682643154C23408C6824022343144C0B
:10423000A04219D0124CA04208D0124CA04205D086
:10424000114CA04202D0114CA04207D1104C144096
:104250004A69120122438C6925012A434260C661E2
:104260004A68C263036270BD0A4C1C40CB681B02E3
:104270002343094C2340DDE7FFFEFFFFFFFDFFFF67
:10428000002C014000400140004401400048014032
:10429000FFCFFFFFFFF7FFFFFFFBFFFF30B5036A14
:1042A000134A13400362026A4368C469114D2C40EB
:1042B0000D682D022C43104D15408A6812032A43C5
:1042C0000E4DA84208D00E4DA84205D00D4DA84273
:1042D00002D00D4DA84204D10C4D2B404D69AD01CB
:1042E0002B434360C4614B680364026230BDC04627
:1042F000FFEFFFFFFF8CFFFFFFDFFFFF002C014000
:10430000004001400044014000480140FFBFFFFF62
:1043100030B5036A046A0125AC4304628469EF3551
:10432000AC43120122430A24A34319438261016270
:1043300030BD000030B5036A1024A34303628469D2
:10434000036A054D2C4012032243A024A343090114
:1043500019438261016230BDFF0FFFFF0B008168CE
:104360007022914319430723194381607047026803
:10437000D36801210B43D3600268916807230B4087
:10438000062B03D0136801210B43136000207047F4
:1043900070477047704770477047704710B504000A
:1043A00003681A6992070FD5DA6892070CD50322C1
:1043B00052421A610123037703689B699B0763D00C
:1043C000FFF7E9FF0023237723681A69520712D504
:1043D000DA6852070FD5052252421A610223237769
:1043E00023689A69C0239B001A4253D02000FFF72C
:1043F000D2FF0023237723681A69120710D5DA68E1
:1044000012070DD5092252421A610423237723682B
:10441000DB699B0745D02000FFF7BDFF0023237712
:1044200023681A69D20612D5DA68D2060FD511228E
:1044300052421A61082323772368DA69C0239B005C
:104440001A4235D02000FFF7A6FF00232377236808
:104450001A69D20702D5DA68D20730D423681A69FC
:10446000120602D5DA68120630D423681A69520699
:1044700002D5DA68520630D423681A69920602D54A
:10448000DA68920630D410BDFFF784FF2000FFF7F2
:1044900083FF97E72000FFF77DFF2000FFF77CFFF9
:1044A000A7E72000FFF776FF2000FFF775FFB5E7CD
:1044B0002000FFF76FFF2000FFF76EFFC5E7022225
:1044C00052421A612000FFF764FFC7E7812252427F
:1044D0001A61200000F061FAC7E7412252421A61D6
:1044E0002000FFF75AFFC7E7212252421A6120003D
:1044F00000F052FAC7E700000368214A904206D054
:104500008022D205904202D01E4A904203D17022EE
:1045100093434A6813431A4A904212D08022D2052C
:1045200090420ED0174A90420BD0174A904208D0C2
:10453000164A904205D0164A904202D0154A90423F
:1045400003D1154A1340CA681343802293434A6932
:10455000134303608B68C3620B688362084B984205
:1045600008D00A4B984205D0094B984202D0094B1B
:10457000984201D10B690363012343617047C04630
:10458000002C014000040040002000400040014099
:104590000044014000480140FFFCFFFF70B5041ECD
:1045A00014D03D23C35C002B0AD03D250223635564
:1045B000211D2068FFF7A0FF01236355002070BD77
:1045C0003C330022C254FEF79FFCEEE70120F6E7E1
:1045D00070B5041E14D03D23C35C002B0AD03D25CA
:1045E00002236355211D2068FFF786FF01236355D1
:1045F000002070BD3C330022C254FFF7C9FEEEE735
:104600000120F6E770B5036A102293430362036A40
:1046100042688469174D2C400D682D0225432024E3
:10462000A3438C6824012343134CA04219D0124C9D
:10463000A04208D0114CA04205D0114CA04202D09B
:10464000104CA04207D1104C14404A6992002243FA
:104650008C69A6003243426085614A6882630362C6
:1046600070BD8024A3431C00CB681B01234340245E
:10467000A343DCE7FF8CFFFF002C0140004001401A
:104680000044014000480140FFF3FFFF70B5040003
:104690000D003C23C35C012B69D03C230121C15494
:1046A00001330131C154042A37D019D9082A4AD01C
:1046B0000C2A2AD129000068FFF7F0FD2268D16991
:1046C00080231B010B43D3612268D36929490B4026
:1046D000D3612168CB692A6912021343CB6114E0CC
:1046E000002A12D129000068FFF74CFD2268936967
:1046F00008210B4393612268936904398B439361CA
:104700002268936929690B4393613D230122E25496
:10471000013B0022E254002070BD29000068FFF731
:1047200071FF2268916980231B010B43936122680A
:10473000936910490B40936121688B692A691202C1
:1047400013438B61E1E729000068FFF75FFD2268F2
:10475000D36908210B43D3612268D36904398B43A1
:10476000D3612268D36929690B43D361CDE7022065
:10477000D2E7C046FFFBFFFF30B58468034D2C40F5
:104780001B021A4311432143816030BDFF00FFFF2C
:1047900010B504003C23C35C012B66D03C230122EE
:1047A000C25401330132C254026893683048034056
:1047B00093600B68402B4ED015D9602B41D021D986
:1047C000702B2BD080229201934232D1CB684A6861
:1047D00089682068FFF7D0FF226891688023DB0199
:1047E0000B43936025E0102B07D004D9202B04D075
:1047F000302B02D01DE0002B1BD119002068FFF7E1
:10480000ADFD16E0502B14D1CA6849682068FFF747
:104810007FFD50212068FFF7A1FD0AE0CB684A68C0
:1048200089682068FFF7A8FF2268936877210B4307
:1048300093603D230122E254013B0022E254002018
:1048400010BDCA6849682068FFF774FD60212068C0
:10485000FFF784FDEDE7CA6849682068FFF758FD57
:1048600040212068FFF77AFDE3E70220E8E7C04631
:104870008800FFFF10B51F23194004248C40036AF1
:10488000A3430362036A8A401A43026210BD10B553
:10489000040004220068FFF7EDFF2268516C8023BA
:1048A0001B020B4353642268916807230B40062BBD
:1048B00003D0136801210B431360002010BD0000DA
:1048C00030B53C23C35C012B28D03C230122C254C9
:1048D00001330132C25403685A689C687025AA43A8
:1048E0000D682A435A6003680D4A934209D080221A
:1048F000D205934205D00B4A934202D00A4A934212
:1049000004D1802294434A6814439C603D230122D1
:10491000C254013B0022C254002030BD0220FCE7FB
:10492000002C0140000400400040014010B53C2331
:10493000C35C012B21D03C2201238354104BCC6853
:1049400023408C6823430F4C23404C6823430E4C78
:1049500023400C6823430D4C23400C6923430C4C2B
:1049600023404C6923430B4C2340C9690B43016826
:104970004B6400238354002010BD0220FCE7C04696
:10498000FFFCFFFFFFFBFFFFFFF7FFFFFFEFFFFF56
:10499000FFDFFFFFFFBFFFFF7047704730B587B0F5
:1049A000041E61D0314BC35C002B07D02F4B032278
:1049B000E2542068FEF712FB00231AE08A239B00D2
:1049C0000022C254FEF7EAFAF0E75A01A2181100D9
:1049D00029310120087001390B70D38610002B306B
:1049E000002101709163D1639A1C5201115101336E
:1049F000DBB260688342E8D3002215E05301E3187C
:104A00001D002A35FF3500212970013D2A7003352C
:104A100029700D3529603D33FF33196013000A33C7
:104A20005B0119510132D2B29042E7D86A462300A5
:104A3000103323CB23C203CB03C26168A268E368AF
:104A40002068FEF7D5FA24230022E254074B0132F6
:104A5000E254E369012B02D0002007B030BD2000F2
:104A600000F006F80020F8E70120F6E72902000030
:104A700002689A239B000121C150083B0021C154C8
:104A80005423D15A01200143D152D15A022001436B
:104A9000D1520020704770470D4885460D480E4999
:104AA0000E4A002302E0D458C4500433C4188C4288
:104AB000F9D30B4A0B4C002301E013600432A242ED
:104AC000FBD3FFF7E8FF00F011F8FEF7A1F8FEE7CF
:104AD0000040002000000020E4070020E061000802
:104AE000E8070020B80B0020FEE7000070B50026A4
:104AF0000C4D0D4C641BA410A64209D1002601F0F8
:104B0000FBF90A4D0A4C641BA410A64205D170BDE6
:104B1000B300EB5898470136EEE7B300EB589847DF
:104B20000136F2E7D8610008D8610008D8610008B2
:104B3000DC61000803001218934200D1704719701D
:104B40000133F9E730B5204A4B0087B05B08934248
:104B50001CDD1E4A934205DD02000B00FDF71AFB27
:104B600007B030BD02AA00F07BF803231840049A76
:104B7000059B01280FD002281CD0002815D00298D0
:104B800003990124009400F0F5FFE9E700220023D7
:104B900000F076FAE4E700900298039900F0EAFF4B
:104BA00080231B069C466144DAE70298039900F0D3
:104BB00067FAD5E70298039900F062FA80231B0692
:104BC0009C466144CCE7C046FB21E93FFFFFEF7FF5
:104BD00030B5214A4B0087B05B0893421EDD1F4A67
:104BE000934205DD02000B00FDF7D4FA07B030BD9B
:104BF00002AA00F035F803231840049A059B012807
:104C000013D002281DD0002814D00298039900F078
:104C100037FA80231B069C466144E7E70023002205
:104C20000093002300F0A6FFE0E70298039900F04C
:104C300027FADBE7012402980399009400F09AFF19
:104C4000D4E7012402980399009400F093FF802395
:104C50001B069C466144C9E7FB21E93FFFFFEF7F4C
:104C6000F0B54E464546DE465746E0B5E14B4C00B2
:104C70008FB09046894664089C4200DC87E0DE4B9A
:104C80009C4222DCDD4A002900DC92E0DC4BFDF78F
:104C900081FADB4B06000F009C4200D17EE1D94A2D
:104CA000D94BFDF777FA02000B00414630000A604D
:104CB0004B603900FDF76EFAD34BD24AFDF76AFA22
:104CC000434601259860D9606BE0D04B9C4200DCE4
:104CD0008FE0CF4B9C4200DD55E1CE4A2315924632
:104CE0009A4451460905631A19001D000400FDF796
:104CF00099FDFDF7CDFD02000B0020002900089270
:104D00000993FDF747FA0022C34BFCF7D1FF0F00D0
:104D10000600FDF787FDFDF7BBFD04000D00020056
:104D20000B00300039000A940B95FDF733FA00228E
:104D3000B94BFCF7BDFF002200230C900D91FBF74F
:104D400069FB002800D192E1002300222000290005
:104D5000FBF760FB434243410133B04A41460192B5
:104D6000022208A80092524600F0A4FA4B46050021
:104D7000002B16DA802243461206944642465B68B0
:104D8000454263445360D3686344D36009E00B0039
:104D9000020041460A604B600022002300258A6021
:104DA000CB6028000FB03CBC90469946A246AB466B
:104DB000F0BD934BFCF756F8914B06000F009C4258
:104DC00000D13DE18F4A904BFCF74CF802000B00FC
:104DD000414630000A604B603900FDF7DBF9894A33
:104DE000894BFCF73FF8012543466D429860D96036
:104DF000D7E700F071FF8A4A8A4B06000F00FCF7E4
:104E000057FF0022884BFCF72DF8FDF70BFD05003E
:104E1000FDF73EFD794A7A4B04900591FCF748FF77
:104E200002000B0030003900FDF7B4F9754A0600A6
:104E30000F0004980599744BFCF73AFF0290039118
:104E40001F2D00DCC7E0029A039B30003900FDF7FC
:104E5000A1F983468A4653465B0024155B0DE31A8D
:104E6000102B6CDD04980599D322674B5205FCF793
:104E70001FFF02000B003000390002920393FDF780
:104E800089F90A0001001300069107920200390017
:104E90003000FDF77FF9029A039BFDF77BF90600CE
:104EA0000F0004980599614A614BFCF701FF32003D
:104EB0003B00FDF76FF9069E079F0B0002003900CB
:104EC000300002920393FDF765F94B005B0D8346BA
:104ED0008A46E41A312C32DD04980599B822544BE5
:104EE0009205FCF7E5FE03000C0002000293039418
:104EF0000B0006980799FDF74DF902000B0006001C
:104F00000F0006980799FDF745F9029A039BFDF7F4
:104F100041F9484A0290039104980599464BFCF7E1
:104F2000C7FE029A039BFDF735F902000B00300023
:104F3000390002920393FDF72DF983468A465A46BB
:104F40005346414630000A604B603900FDF722F9B4
:104F5000029A039BFDF71EF944460B000200A26073
:104F6000E3604B46002B00DB1BE75B46236080239E
:104F70001B065344636080231B069C466144A0606B
:104F8000E1606D420DE70B000200FDF703F94346B7
:104F900000259860D9601860596002E7D3221A4B47
:104FA0005205FDF7F7F8214A214B0D000400FDF7EB
:104FB000F1F802000B00414620000A604B60290016
:104FC000FDF7E8F81A4B194AFDF7E4F843460125C6
:104FD0009860D960E5E602000B0030003900FDF76B
:104FE000D9F86B1E154A9B009B5883468A46A342FC
:104FF000A5D130E7FB21E93F7BD9024000004054B6
:10500000FB21F93F3163621A61B4D03DFB21394184
:10501000FFFFEF7FEAFBFFFF0000704180600008A8
:1050200083C8C96D305FE43F0000E03F7370032E1A
:105030008A19A33BC14920259A837B390060000867
:10504000D3220C4B5205FBF70DFF0B4A0B4B040010
:105050000D00FBF707FF02000B00414620000A602D
:105060004B602900FDF796F8034A044BB9E6032389
:1050700073E6C04661B4D03D7370032E8A19A33B1A
:10508000F0B54746CE4680B587B000920193754B88
:105090004F00814688467F089F4263DCFDF7C2FBD4
:1050A000002800D1D4E04A46434648464146FCF732
:1050B000FFFD04000D006C4A6C4BFCF7F9FD6C4AD7
:1050C0006C4BFBF7CFFE22002B00FCF7F1FD6A4A88
:1050D0006A4BFDF75FF822002B00FCF7E9FD684AF8
:1050E000684BFBF7BFFE22002B00FCF7E1FD664A90
:1050F000664BFDF74FF822002B00FCF7D9FD644A00
:10510000644BFBF7AFFE22002B00FCF7D1FD0290B1
:1051100003910022604B20002900FCF7C9FD029A90
:10512000039B06000F0020002900FCF7C1FD009A38
:10513000019B04000D0048464146FCF7B9FD020002
:105140000B0020002900FDF725F802000B003000BD
:105150003900FDF71FF802000B0000204F49FDF752
:1051600019F870E002000B00FCF7A2FD04000D002E
:105170003D4A3E4BFCF79CFD3D4A3E4BFBF772FE21
:1051800022002B00FCF794FD3B4A3C4BFDF702F854
:1051900022002B00FCF78CFD394A3A4BFBF762FEEC
:1051A00022002B00FCF784FD374A384BFCF7F2FF56
:1051B00022002B00FCF77CFD354A364BFBF752FEF4
:1051C0002B002200FCF774FD354B029003919F42A7
:1051D0009FDD344B00229F423DDC334900207B1889
:1051E0002E4916001F00FCF7D5FF04900591002200
:1051F000294B20002900FCF75BFD32003B00FCF747
:10520000C9FF029A039B06000F0020002900FCF74B
:105210004FFD009A019B04000D0048464146FCF7F3
:1052200047FD02000B0020002900FCF7B3FF02003D
:105230000B0030003900FCF7ADFF02000B000498B2
:105240000599FCF7A7FF07B00CBC90469946F0BD46
:1052500000201249F7E7154B002604920593144FDE
:10526000C5E7C046FFFF3F3ED43888BEE9FAA8BD77
:10527000C4B1B4BD9EEE213EAD529C804F7E923EA5
:105280009015CB19A001FA3E7751C1166CC1563F5B
:105290004C5555555555A53F0000E03F0000F03FE7
:1052A0003233D33F0000E93F0000E0FF0000E73F5A
:1052B0000000D23FF0B5DE464E4645465746E0B5C3
:1052C000DC4CA5440D9114001900A49A0993DA4B03
:1052D0009200D6584D1E03901821E01E06960295A6
:1052E000FAF79CFFC3430100DB1719404B1C9A00DF
:1052F0009B1ADB001B190B9105934C1B771918D4D3
:10530000A59BA5009C463F1922AE6544013707E0E6
:105310002868FDF7BDFA013403C60435BC4208D045
:10532000002CF5DA00200021013403C60435BC420C
:10533000F6D1069B002B01DA00F0FDFB069B0399DA
:105340000133DB009A46099BDA0094460092002262
:10535000914672AA0492B94A6144934688469AAB30
:1053600063449B44029B002B00DABCE15D460026AF
:105370000027039C4D442A686B6803CCFCF798FC1B
:1053800002000B0030003900FBF76CFD083D060001
:105390000F004445EFD1049B4B441E605F6008231F
:1053A0009C46E144D145DDD10EA804218446494202
:1053B00061448C46069A93009C44614684460A9157
:1053C0000399083B63448C460C93009B0092634412
:1053D0009B46009A0498D10003008C4663440891D0
:1053E0001E685F68002A33DD954980468C4662441A
:1053F000D300984470AB9A460EAB99460022914B6D
:1054000030003900FCF754FCFDF70CFAFDF740FAC8
:1054100000228D4B04000D00FCF74AFC02000B003B
:1054200030003900FCF7B6FEFDF7FCF94B4601C32E
:105430009946434620001A685B682900FBF712FD75
:1054400008235B429C46E04406000F00D045D5D1BE
:10545000059B30001A003900984600F0DDFCFF2360
:1054600000229B0504000D00FCF722FC00F038FC34
:105470000022764BFCF71CFC02000B0020002900E8
:10548000FCF788FE0D000400FDF7CCF98146FDF71E
:10549000FFF902000B0020002900FCF77BFE06004C
:1054A00040460F00002800DCEEE0009B18215A1E49
:1054B00092000EAB9B58091A1D000D41A9448D4066
:1054C0005D1B0EAB9D5017231B1A1D41002D2DDDBA
:1054D00001239C46009BE144002B00DC1CE20E9C57
:1054E0000123002C00D0B5E0009A012A09D09900D0
:1054F0000EAA54580133002C00D0ACE0009A9A4216
:10550000F5D1059B002B0EDD012B00D1A8E1022B6C
:1055100009D1009B0EA95A1E92000EAB9B5807930F
:105520009B029B0A8B50022D00D1C1E00023002278
:1055300030003900FAF76EFF009B002800D194E29A
:10554000069A591E8A4210DC414A0A9894460EAACD
:105550006344944600229B0063441C68043B22433E
:105560008342FAD1002A00D0C0E0069B0EAA013B7C
:105570009B00D358002B00D0B3E001220C9B043BCE
:10558000596801320029FAD0009B9C466244110000
:1055900007921A0001338B4246DC0B986346804623
:1055A000A59C4344A046099C9B00A1464A449844BC
:1055B000D30022AA9146049A99449446089BA59A3E
:1055C00063448446614494469A468B006344009346
:1055D00043465868FDF75CF94B4618605960029BDA
:1055E000002B24DB4D46039C0026002701E02868A1
:1055F00069680CCCFCF75CFB02000B003000390042
:10560000FBF730FC083D06000F005C45EFD1534628
:105610009E60DF6004239C460433E0449C46009B6C
:10562000E144E2449845D3D1079B0093D1E600269C
:105630000027ECE794FDFFFFC861000818FEFFFF9C
:10564000FFFFFF1F0000703E00007041000020407F
:10565000FFFFFF3F002180225204141B0EAA54506A
:10566000009999420EDD0EA884469B000EAA89007F
:10567000D25861446344CF4800E01A68821A04C3D8
:105680008B42FAD101243CE7059B002B06D1009BFD
:105690000EAA013B9B00D558ED1517E70022C64B1B
:1056A0003000FAF7DBFE002800D024E100253DE7BA
:1056B00032003B000020C149FCF76CFD06000F00E2
:1056C000002C00D132E7059A0020BC4900F0A4FB71
:1056D00002000B0030003900FCF75CFD06000F00F3
:1056E00024E7012250E70026002754E64B46059A9E
:1056F000079388468B000EA9CB58183A0895059257
:10570000002B0DD18C464146AD4B43449B00634476
:10571000043B58680139183A0028F9D088460592A8
:10572000059A0020A54900F077FB434604000D00D0
:10573000002B00DA05E29E000EAB9C464346DB00E0
:1057400066449C46059370AB9946049F6744009756
:105750003068FDF79DF822002B00FCF7A9FA002223
:1057600038607960974B20002900FCF7A1FA083FC8
:1057700004000D00043EB945EAD14AAB03939B46B1
:1057800000239A46069B42469946434601320292BE
:1057900004934B46002B00DAAAE080208A4B009D40
:1057A0009846C005894900260027002408E0082300
:1057B0009C460835E044544511DC43461868596856
:1057C0002A686B68FCF774FA02000B00300039009D
:1057D000FBF748FB013406000F00A145E7DA5B4602
:1057E000C0C39B4601239C46009BE244083B0093B8
:1057F000029B9A45CDD1049B9846A49B022B00DDC9
:105800008EE0002B37DC1FD1059B00271D00039B7A
:1058100000249C461E006544083E2A686B683800D8
:105820002100FBF71FFB083D07000C00AE42F4D13E
:10583000089B002B03D080231B069C4664443A003F
:1058400023000D990A604B600720079B18409B239B
:105850009B009D443CBC90469946A246AB46F0BD99
:10586000009B0EA95A1E92000EAB9B5807935B0239
:105870005B0A8B5057E64346002B00DA70E10020AC
:105880000021DB004AAAD61848AF32687368083E88
:10589000FBF7E8FAB742F8D1089B002B00D025E1CE
:1058A0000B0002004A984B990D9C22606360FCF744
:1058B00071FC434607000C00002B13DD01254CAEA4
:1058C000B14638002E0021004C4601360CCCFBF7C7
:1058D000C9FAA146B045F7DA089B07000C00002B77
:1058E00000D015E13A0023000D998A60CB60ABE748
:1058F0000026002773E701239C46009BE144022514
:10590000002B00DDEBE532003B0000202B49FCF7CB
:1059100041FC06000F0009E60024F2E54AAB0393C0
:10592000A49B032B00D08FE74346002B00DC14E13F
:10593000039ADB009B46130091465B441E685F6838
:10594000234B43440293DB00994448AB9A464B46B1
:105950005C681B681800210032003B000090019138
:10596000FBF780FA04000D0002000B00009801997B
:10597000FCF710FC3B003200FBF774FA4B469860D2
:10598000D9601C605D6008235B429C46E1442600B0
:105990002F00CA45DBD14346012B00DCE3E0039A2C
:1059A00013005B441E685F68029BDB0099464A4413
:1059B000904610E0FFFFFF000000E03F0000F03FD6
:1059C000FFFFFF3F0000703E88610008FB21F93FA8
:1059D000FFFFFF1F984643465C681B6818002100C4
:1059E00032003B0000900191FBF73CFA04000D00EF
:1059F00002000B0000980199FCF7CCFB32003B0041
:105A0000FBF730FA4346039A9860D9601C605D60EA
:105A1000083B26002F009A42DCD14D4694460026D2
:105A200000244746083565442A686B683000210029
:105A3000FBF718FA083D06000C00AF42F4D1039BB7
:105A40004A9F5D689968D868089B002B65D08022C2
:105A5000120694460D9B6544604464441F605D607B
:105A60009960D8601E615C61EEE69A464B460793EA
:105A7000059B30005A423900089500F0CDF900220C
:105A80003A4B06000F00FAF7E9FC002824D0384B07
:105A9000002230003900FCF70BF9FCF7C3FE524638
:105AA00004009500FCF7F4FE0022304BFCF700F9EF
:105AB00002000B0030003900FCF76CFBFCF7B2FE73
:105AC0000EAA50510122059B52441833904605936B
:105AD00093000EAAD45023E65346300039009C00B0
